:100000000C9457000C9474000C9474000C947400BD
:100010000C9474000C9474000C9474000C94740090
:100020000C9474000C9474000C9474000C94740080
:100030000C9474000C9474000C9474000C94740070
:100040000C9474000C9474000C9474000C94740060
:100050000C94740008000000BE922449123EABAA22
:10006000AA2ABECDCCCC4C3E00000080BEABAAAAD2
:10007000AA3E00000000BF000000803F000000001A
:1000800000084178D3BB4387D1133D190E3CC3BD53
:100090004282AD2B3E68EC8276BED98FE1A93E4C00
:1000A00080EFFFBE01C4FF7F3F000000000011246D
:1000B0001FBECFE5D8E0DEBFCDBF13E0A0E6B0E0C5
:1000C000ECE1F2E102C005900D92A836B107D9F734
:1000D00023E0A8E6B3E001C01D92A037B207E1F724
:1000E0000E9429040C940C090C940000FB01DA0115
:1000F0009FED980F9F3038F096EC980F963018F0DF
:10010000843609F0B4C028E030E011963C932E9379
:100110008C3274F48A3214F586323CF48432F4F46E
:10012000813234F18332BCF41CC08632E9F413C04E
:100130008C3354F48A33ACF48D3281F094F08E32E7
:1001400099F08F3271F014C0803444F0843681F419
:100150003183208397C026E030E008C025E030E0FE
:1001600005C023E030E002C022E030E0318320838C
:100170008B3209F458C064F5853209F460C09CF4F0
:10018000823209F45FC034F4813209F070C088E330
:1001900093E00895833209F440C0843209F067C0C7
:1001A0008CE293E00895883209F458C044F4863212
:1001B000B9F1873209F05BC084E493E00895893295
:1001C00009F44FC08A3209F052C082E093E00895EA
:1001D0008B33F1F19CF48E3209F446C044F48C3236
:1001E000D1F18D3209F043C08EE093E008958F3253
:1001F00061F18A33E1F583E790E008958E33C9F029
:100200003CF48C3399F08D3391F58AE193E00895B5
:100210008F3391F0843659F535C084EF92E008951C
:100220008BEF92E0089588E093E0089584E193E0F5
:10023000089580E293E0089586E293E0089582E3D2
:1002400093E008958FE690E008958CE393E008959D
:1002500087E790E0089580E493E0089587E493E0D1
:1002600008958AE493E008958DE493E0089584E08E
:1002700090E09183808388E090E08D939C938FEE53
:1002800092E0089586E690E0089590ED980F9A30F8
:1002900088F425E030E0FB013183208328E030E062
:1002A000FA0131832083F5E08F02C00111248157C8
:1002B00090400895803A8CF425E030E0FB013183D2
:1002C000208328E030E0FA0131832083F5E08F02BB
:1002D000C00111248E5C9C4F0895803269F483E044
:1002E00090E0FB019183808388E090E0FA019183A4
:1002F00080838BE790E008950C94760080E886B9BF
:100300000895806487B91ABA1BBA369A349BFECF17
:1003100080B78B7F80BF64B185B170E0782B072EEA
:10032000000C880B990B089516B808950F93889ABE
:10033000909A0E9417020E94650281E090E00E945C
:10034000DF0200E020E240E260E483E591E00E9409
:100350009C030E9489022FEF83ED90E3215080409F
:100360009040E1F700C000000F9108954F925F9216
:100370006F927F92AF92BF92CF92DF92EF92FF92F5
:100380000F931F93CF93DF9300D000D0CDB7DEB78C
:100390002B013C01CA01B901A80197010E94700517
:1003A0000E94AE0669837A838B839C8323E333E9BF
:1003B00048E853E4C601B5010E9404059B01AC0165
:1003C00060E070E080E89FE30E9470056B017C01B3
:1003D000A301920169817A818B819C810E947005C1
:1003E0009B01AC01C701B6010E9403059B01AC0152
:1003F00060E070E080E89FE30E94700523E333E94A
:1004000048E853E40E9403050F900F900F900F905F
:10041000DF91CF911F910F91FF90EF90DF90CF90E0
:10042000BF90AF907F906F905F904F90089584B38E
:10043000836084BB85B3836085BB11B882E080B9DB
:10044000089506B607FEFDCF089584EA86BF0C9492
:10045000210283B984E886BF0C9421020F931F9375
:10046000CF93DF93EC018C01060F171FC017D10744
:1004700021F089910E942902F9CFDF91CF911F913C
:100480000F91089584E986BF089580E886BF089596
:100490001F93CF93DF93182FEB01209729F00E9431
:1004A000250288E70E94290280E80E942902812F04
:1004B0000E942902CD2B29F0DF91CF911F910C943E
:1004C0004202DF91CF911F910895CF93DF930E9455
:1004D000250288E70E942902C5EDD2E082E0CF3EE6
:1004E000D80731F060E070E089910E944802F6CFB1
:1004F0000E94420280E092E0909369038093680337
:100500000E94980790936B0380936A03DF91CF91C9
:1005100008950F931F93CF93DF930E94250288E7DE
:100520000E94290260E070E081E20E94480260E0DF
:1005300070E080E00E94480260E070E08FE70E9477
:10054000480260E070E082E20E94480260E070E0F1
:1005500080E00E94480260E070E083E00E94480270
:100560000E94420200E010E0C0E0D0E08091680309
:100570009091690324E0969587952A95E1F7C8172D
:10058000D907C0F40E94250288E70E94290280E46E
:100590000E94290280916A0390916B0360E170E0F0
:1005A000800F911F0E942E020E9442022196005F3E
:1005B0001F4FDCCFDF91CF911F910F910895409194
:1005C000680350916903892B19F460E070E002C060
:1005D0006FEF70E080916A0390916B030C94B908FF
:1005E000962F9695969596956770E82FF0E080E89F
:1005F000989FE00DF11D112480916A0390916B0387
:10060000E80FF91F81E090E001C0880F6A95EAF7D2
:10061000452B19F09081892B03C080959081892307
:1006200080830895FF920F931F93CF93DF93C82F7A
:10063000F62ED42F8901A8016D2F8C2FCF1549F0EC
:100640000E94F002FC1610F081E001C08FEFC80F8D
:10065000F2CFDF91CF911F910F91FF900C94F00298
:10066000FF920F931F93CF93DF93C82FF62ED42FB3
:100670008901A8016C2F8D2FCF1549F00E94F0023F
:10068000FC1610F081E001C08FEFC80FF2CFDF91B0
:10069000CF911F910F91FF900C94F002EF92FF9277
:1006A0000F931F93CF93DF93E82EC62FF42ED22FF4
:1006B0009801462F6F2D0E94120398014D2F6F2D28
:1006C0008E2D0E94120398014E2D6D2F8C2F0E94AB
:1006D000300398014F2D6D2F8C2FDF91CF911F91FB
:1006E0000F91FF90EF900C943003EF92FF920F93D5
:1006F0001F93CF93DF93C82FD62FF42EE22E4817E7
:1007000010F4C42FF82EED1628F48D2FDE2DE82ED0
:1007100001C0CF5FFC1648F0ED16D8F3A8016D2F8D
:100720008C2F0E94F002DF5FF7CFDF91CF911F91F6
:100730000F91FF90EF9008957F928F929F92AF92CA
:10074000BF92CF92DF92EF92FF920F931F93CF93BE
:10075000DF936C01862E122F762E720EC22F942EEE
:10076000900EAA24A394B12CEC2EE11AC71549F1DE
:10077000C7FD27C0D02FF12C8D2F801BD915F9F084
:10078000D032E8F4982F969596959695F601989D17
:10079000E00DF11D1124EE0DFF1D8770950102C0C3
:1007A000220F331F8A95E2F7C90140818423482F25
:1007B00050E06D2F8C2F0E94F002DF5FDDCFCF5F06
:1007C000D3CFDF91CF911F910F91FF90EF90DF90EA
:1007D000CF90BF90AF909F908F907F900895AF92F1
:1007E000BF92CF92DF92EF92FF920F931F93CF931E
:1007F000DF9300D000D0CDB7DEB77B01142F5901B5
:100800006C01F60181916F018823A1F0AE014F5F69
:100810005F4FBE016D5F7F4FF5010995012F2E2DB2
:1008200049816B810E949C038B819C810196E80E1B
:10083000F91EE7CF0F900F900F900F90DF91CF919F
:100840001F910F91FF90EF90DF90CF90BF90AF90EE
:1008500008950E94960180E8B82E80E090E00E9402
:10086000DF02909AB6B880E090E00E9481016B01AF
:100870007C0116B82FEF89E698E121508040904026
:10088000E1F700C00000909880E190E00E94980796
:100890008C0180E490E00E949807EC01C701B6014A
:1008A000882799272AE0A8010E94CB088C0118828A
:1008B00060E573E0CE010E94C008B801CE010E943D
:1008C000C00825E431E045E050E065E070E0CE018D
:1008D0000E94EF03B60180E090E00E9418069B01A1
:1008E000AC0160E070EC8FE794E40E94700520E0BA
:1008F00030E040E85FE30E94030520E030E543EC90
:1009000057E40E94F6066B017C010E94E2052AE092
:10091000A8010E94CB088C01188266E573E0CE0125
:100920000E94C008B801CE010E94C0086CE573E0C7
:10093000CE010E94C00825E431E04EE050E065E0C1
:1009400070E0CE010E94EF03A701960160E070E520
:1009500083EC97E40E9470050E94AE0620E030EE22
:1009600046E755E40E9470059B01AC016FE07FEC07
:100970008BE59BE30E9403059B01AC0160E070E006
:1009800080E89FE30E94700523E333E948E853E4DD
:100990000E9403050E94E2052AE0A8010E94CB08FC
:1009A0007C01188260E673E0CE010E94C008B701A6
:1009B000CE010E94C00866E673E0CE010E94C00826
:1009C00025E431E047E150E065E070E0CE010E94AF
:1009D000EF0300E020E640E260E284E592E00E945E
:1009E0009C030E948902CE010E943008C7010E9428
:1009F00030082FEF89E698E1215080409040E1F7E0
:100A000000C000002ACF5058BB27AA270E941B0510
:100A10000C946C060E945E0638F00E94650620F079
:100A200039F49F3F19F426F40C945B060EF4E0951C
:100A3000E7FB0C945506E92F0E947D0658F3BA1780
:100A4000620773078407950720F079F4A6F50C94E4
:100A50009F060EF4E0950B2EBA2FA02D0B01B901C5
:100A600090010C01CA01A0011124FF27591B99F024
:100A7000593F50F4503E68F11A16F040A22F232F30
:100A8000342F4427585FF3CF469537952795A79580
:100A9000F0405395C9F77EF41F16BA0B620B730B27
:100AA000840BBAF09150A1F0FF0FBB1F661F771F98
:100AB000881FC2F70EC0BA0F621F731F841F48F44D
:100AC000879577956795B795F7959E3F08F0B0CFD6
:100AD0009395880F08F09927EE0F979587950895BD
:100AE0000E9484050C946C060E94650658F00E94D2
:100AF0005E0640F029F45F3F29F00C945506511131
:100B00000C94A0060C945B060E947D0668F3992362
:100B1000B1F3552391F3951B550BBB27AA276217F9
:100B20007307840738F09F5F5F4F220F331F441F06
:100B3000AA1FA9F335D00E2E3AF0E0E832D091503A
:100B40005040E695001CCAF72BD0FE2F29D0660F27
:100B5000771F881FBB1F261737074807AB07B0E86A
:100B600009F0BB0B802DBF01FF2793585F4F3AF070
:100B70009E3F510578F00C9455060C94A0065F3FFB
:100B8000E4F3983ED4F3869577956795B795F795F6
:100B90009F5FC9F7880F911D9695879597F90895DE
:100BA000E1E0660F771F881FBB1F6217730784077A
:100BB000BA0720F0621B730B840BBA0BEE1F88F789
:100BC000E09508950E94E9056894B1110C94A0067F
:100BD00008950E94850688F09F5798F0B92F9927AD
:100BE000B751B0F0E1F0660F771F881F991F1AF018
:100BF000BA95C9F714C0B13091F00E949F06B1E0D8
:100C000008950C949F06672F782F8827B85F39F0D6
:100C1000B93FCCF3869577956795B395D9F73EF4B0
:100C200090958095709561957F4F8F4F9F4F089558
:100C3000E89409C097FB3EF4909580957095619576
:100C40007F4F8F4F9F4F9923A9F0F92F96E9BB272C
:100C50009395F695879577956795B795F111F8CFA8
:100C6000FAF4BB0F11F460FF1BC06F5F7F4F8F4F13
:100C70009F4F16C0882311F096E911C0772321F009
:100C80009EE8872F762F05C0662371F096E8862FA1
:100C900070E060E02AF09A95660F771F881FDAF7F8
:100CA000880F9695879597F9089597F99F6780E83B
:100CB00070E060E008959FEF80EC089500240A94AE
:100CC0001616170618060906089500240A94121627
:100CD0001306140605060895092E0394000C11F45A
:100CE000882352F0BB0F40F4BF2B11F460FF04C007
:100CF0006F5F7F4F8F4F9F4F089557FD9058440F60
:100D0000551F59F05F3F71F04795880F97FB991F6A
:100D100061F09F3F79F08795089512161306140627
:100D2000551FF2CF4695F1DF08C0161617061806B4
:100D3000991FF1CF86957105610508940895E8948F
:100D4000BB2766277727CB0197F9089516F00C94F7
:100D500063070C945B0668940C9455060E94850604
:100D6000A8F39923C1F3AEF3DF93CF931F930F93AF
:100D7000FF92C92FDD2788232AF02197660F771F5E
:100D8000881FDAF720E030E040E85FEB9FE3883926
:100D900020F0803E38F021968F770E940405E4E52C
:100DA000F0E004C00E940405E1E8F0E00E94710751
:100DB0008B01BE01EC01FB2E6F5771097595771FF2
:100DC000880B990B0E941A0628E132E741E35FE3A2
:100DD0000E940907AF2D9801AE01FF900F911F915E
:100DE000CF91DF910E941B050C946C060E940907AD
:100DF0000C946C060E945E0638F00E94650620F096
:100E0000952311F00C9455060C945B0611240C9458
:100E1000A0060E947D0670F3959FC1F3950F50E0E8
:100E2000551F629FF001729FBB27F00DB11D639F9C
:100E3000AA27F00DB11DAA1F649F6627B00DA11D42
:100E4000661F829F2227B00DA11D621F739FB00DE8
:100E5000A11D621F839FA00D611D221F749F332758
:100E6000A00D611D231F849F600D211D822F762FF1
:100E70006A2F11249F5750409AF0F1F088234AF0CE
:100E8000EE0FFF1FBB1F661F771F881F915050403A
:100E9000A9F79E3F510580F00C9455060C94A006CE
:100EA0005F3FE4F3983ED4F3869577956795B795C1
:100EB000F795E7959F5FC1F7FE2B880F911D9695DB
:100EC000879597F908959F3F31F0915020F48795C9
:100ED00077956795B795880F911D9695879597F9A2
:100EE0000895DF93CF931F930F93FF92EF92DF92BA
:100EF0007B018C01689406C0DA2EEF010E9409077D
:100F0000FE01E894A5912591359145915591A6F35F
:100F1000EF010E941B05FE019701A801DA9469F711
:100F2000DF90EF90FF900F911F91CF91DF91089587
:100F30000F931F93CF93DF938230910510F482E0DB
:100F400090E0E0916E03F0916F0320E030E0A0E0CC
:100F5000B0E0309719F14081518102811381481727
:100F60005907C8F08417950769F4109731F0129665
:100F70000C93129713961C9327C000936E03109343
:100F80006F0322C02115310519F04217530718F4D9
:100F90009A01BD01EF01DF01F801DBCF2115310519
:100FA000F9F0281B390B2430310580F48A819B81AC
:100FB0006115710521F0FB019383828304C0909336
:100FC0006F0380936E03FE01329644C0FE01E20F70
:100FD000F31F8193919322503109398328833AC0BA
:100FE00020916C0330916D03232B41F4209162001A
:100FF0003091630030936D0320936C032091600067
:10100000309161002115310541F42DB73EB7409173
:10101000640050916500241B350BE0916C03F09146
:101020006D03E217F307A0F42E1B3F0B28173907B7
:1010300078F0AC014E5F5F4F2417350748F04E0F34
:101040005F1F50936D0340936C038193919302C093
:10105000E0E0F0E0CF01DF91CF911F910F91089573
:10106000CF93DF93009709F481C0FC01329713827C
:101070001282A0916E03B0916F03109781F42081CA
:101080003181820F931F20916C0330916D032817DB
:10109000390751F5F0936D03E0936C0367C0ED01E0
:1010A00020E030E0CE17DF0740F44A815B819E01EB
:1010B00041155105F1F0EA01F5CFD383C283408198
:1010C0005181840F951FC817D90759F488819981D8
:1010D000840F951F0296918380838A819B819383DD
:1010E00082832115310529F4F0936F03E0936E0399
:1010F0003DC0E901FB83EA8349915991C40FD51F93
:10110000EC17FD0761F480819181840F951F029691
:10111000E90199838883828193819B838A83E0E0BC
:10112000F0E012968D919C911397009719F0FD01B4
:10113000DC01F7CF8D919C9111979D012E5F3F4F60
:10114000820F931F20916C0330916D03281739078C
:1011500069F4309729F410926F0310926E0302C065
:1011600013821282B0936D03A0936C03DF91CF9131
:101170000895DC0101C06D9341505040E0F708959F
:10118000FB01DC010D900020E9F7119701900D9211
:101190000020E1F70895BB272A3051F4992342F447
:1011A000BDE290958095709561957F4F8F4F9F4FD1
:1011B0000C94DB08BB27FA01A62F62177105810585
:1011C0009105330B30FB66F0AA27660F771F881F47
:1011D000991FAA1FA21710F0A21B63953850A9F7F8
:1011E000A05DAA3308F0A95DA19336F7B111B193C0
:1011F0001082CA010C94FC08DC01FC01672F71917C
:101200007723E1F7329704C07C916D9370836291EC
:0C121000AE17BF07C8F30895F894FFCF95
:10121C00000070032000020502007E818181000322
:10122C000003000042000000A24000000000007E0D
:10123C008181817E000402FF00C6A19189864281D2
:10124C0089897610181412FF87898989717E89899A
:10125C0089700101F10D0376898989760E9191913E
:10126C007E00FE090909FEFF89898971FF89898938
:10127C0076FF01010101DE212121DEFF89898981AF
:10128C00F7087E08F78189898976FFC03806FFFF49
:10129C00C03806FFFF081422C1C0300E01FFFF0248
:1012AC001C02FFFF080808FF7E8181817EFF01017F
:1012BC0001FFFF090909067E818181810101FF017E
:1012CC000183641806010609FF0906816618668108
:1012DC007F80807F8007080808FF7F4078407F7FF1
:1012EC00407840FF01FF888870FF00FF8870FF88FE
:1012FC00888870898989897EFF087E817E8E51312C
:10130C0011FF00FF0101F1F1313131313131F1F1D6
:10131C0001010101018181818181011171E1810151
:10132C00010181E171110101F1F1010181C1E16161
:10133C00311101010181C1E1713131313171E1C1F1
:10134C008101FFFF0000FFFF000000000000FFFF15
:10135C000000003E7FE3C1C1C1C1630000C1C7FEF4
:10136C00783E0F0300000000FFFF0E07030F1C78F0
:10137C00E0C08000001F3F70E0C0C0C0C0E0703F04
:10138C001F00FFFF0000F080808000008000000044
:10139C008000000000E020202020E0000000808081
:1013AC0080000000808080800080000080800080B1
:1013BC0080808080000080808000008000000080A1
:1013CC000000FFFF80808F8888888780A1A6988680
:1013DC0081808080808F808080808F8080878888CB
:1013EC008887888C8780808F808F8C82818F80808B
:1013FC00808F808080878A8A8A8B80888582858886
:10140C008080FF0000008040A040A814A844AA548B
:10141C000A552A552A552A55AA54AA54A850A04010
:10142C0080000000A0548A512A442A0502010000C1
:10143C000000000000000000000102050AF5FAFDA2
:10144C00FAFDFEF00A548A51AA452840800000009B
:10145C0000000000000000000000008020842185B6
:10146C0021852104000000010204091422492254A0
:10147C0088248854A84492442A512A042A04080235
:10148C000000000000AED5F0A81FD3008D14402042
:10149C0000A1C8DA0281FFD9F1DB20A4A42EAFFF92
:1014AC008181FF0024FF2424FF2400728D8D55259B
:1014BC00D2002A1C081C2A0008083E08080008084C
:1014CC0008080800081424224100141414141400F1
:1014DC004122141408000201B1090600444AFF4AD3
:1014EC003200836318C6C1001EBF1E00C03C03003F
:1014FC004020C0000103007E8100817E00C0C0003E
:10150C0080968F3A2000912D853A2000208E8C00F9
:08151C00922D803A20006400CA
:00000001FF
