:100000000C9495000C94B2000C94B2000C94B200C5
:100010000C94B2000C94B2000C94B2000C94B20098
:100020000C94B2000C94B2000C94B2000C94B20088
:100030000C94B2000C94B2000C94B2000C94B20078
:100040000C94B2000C94B2000C94B2000C94B20068
:100050000C94B200E300E300DD00E000E000DD000E
:10006000E600E600E600E000E000E300E000E60075
:10007000E300EA00EA00EA00EA00EA00EA00EA0037
:10008000EA00EA00EA00E300E300E000E000E0004C
:10009000E000120115013C010C010F01F4002401E4
:1000A00027012A01F700FA002101FD002D011801A6
:1000B00030013001300130013001300130013001B8
:1000C000300130011B011E0100010301060109017D
:1000D00008000000BE922449123EABAAAA2ABECD57
:1000E000CCCC4C3E00000080BEABAAAAAA3E0000C9
:1000F0000000BF000000803F0000000000084178C1
:10010000D3BB4387D1133D190E3CC3BD4282AD2BF7
:100110003E68EC8276BED98FE1A93E4C80EFFFBEEF
:1001200001C4FF7F3F000000000011241FBECFE587
:10013000D8E0DEBFCDBF12E0A0E6B0E0E6E0F2E13D
:1001400002C005900D92A23EB107D9F722E0A2EEBF
:10015000B2E001C01D92AA3EB207E1F70E94250459
:100160000C9401090C940000CF93DF93E82FEB016E
:100170008FED8E0F8F3070F086EC8E0F863050F042
:1001800084E090E09983888388E090E0DA018D93A1
:100190009C936FC088E090E0DA018D939C938E2F42
:1001A000EE0F990BAA0BBB0BFC01B197EF31F105D8
:1001B00088F4E65DFF4F0C94F20426E030E008C0BE
:1001C00025E030E005C023E030E002C022E030E06E
:1001D00039832883FC01B197EF31F10508F040C065
:1001E000E75BFF4F0C94F20481E792E047C088E799
:1001F00092E044C08EE792E041C084E892E03EC0C5
:100200008AE892E03BC080E992E038C086E992E05B
:1002100035C08CE992E032C082EA92E02FC088EAD1
:1002200092E02CC08EEA92E029C086E690E026C0DB
:1002300082EB92E023C08AE690E020C08EE690E058
:100240001DC086EB92E01AC08AEB92E017C08DEBDE
:1002500092E014C080EC92E011C083EC92E00EC0FA
:1002600084E090E09983888388E090E0FA019183AC
:10027000808385E692E002C08AE692E0DF91CF912A
:10028000089590ED980F9A3088F425E030E0FB0156
:100290003183208328E030E0FA0131832083F5E0C8
:1002A0008F02C00111248A5790400895803A8CF43F
:1002B00025E030E0FB013183208328E030E0FA01C3
:1002C00031832083F5E08F02C0011124875D9C4FAC
:1002D0000895803269F483E090E0FB01918380838C
:1002E00088E090E0FA019183808382E790E00895AE
:1002F0000C94B40080E886B90895806487B91ABA6E
:100300001BBA369A349BFECF80B78B7F80BF64B117
:1003100085B170E0782B072E000C880B990B08959F
:1003200016B808950F930E941302889A909A0E941B
:10033000610281E090E00E94DB0200E020E240E206
:1003400060E48AE491E00E9498030E9485022FEF06
:1003500083ED90E3215080409040E1F700C0000021
:100360000F9108954F925F926F927F92AF92BF92DA
:10037000CF92DF92EF92FF920F931F93CF93DF9371
:1003800000D000D0CDB7DEB72B013C01CA01B901C6
:10039000A80197010E9465050E94A30669837A83DC
:1003A0008B839C8323E333E948E853E4C601B5011A
:1003B0000E94F9049B01AC0160E070E080E89FE3DB
:1003C0000E9465056B017C01A301920169817A811C
:1003D0008B819C810E9465059B01AC01C701B60120
:1003E0000E94F8049B01AC0160E070E080E89FE3AC
:1003F0000E94650523E333E948E853E40E94F804CA
:100400000F900F900F900F90DF91CF911F910F9150
:10041000FF90EF90DF90CF90BF90AF907F906F9064
:100420005F904F90089584B3836084BB85B38360ED
:1004300085BB11B882E080B9089506B607FEFDCFEE
:10044000089584EA86BF0C941D0283B984E886BFB0
:100450000C941D020F931F93CF93DF93EC018C013B
:10046000060F171FC017D10721F089910E9425029E
:10047000F9CFDF91CF911F910F91089584E986BF45
:10048000089580E886BF08951F93CF93DF93182FB8
:10049000EB01209729F00E94210288E70E942502A3
:1004A00080E80E942502812F0E942502CD2B29F091
:1004B000DF91CF911F910C943E02DF91CF911F915C
:1004C0000895CF93DF930E94210288E70E942502BE
:1004D000CBE4D2E082E0C536D80731F060E070E0CE
:1004E00089910E944402F6CF0E943E0280E092E091
:1004F0009093E3028093E2020E948D079093E502BD
:100500008093E402DF91CF9108950F931F93CF93CF
:10051000DF930E94210288E70E94250260E070E0DC
:1005200081E20E94440260E070E080E00E944402A8
:1005300060E070E08FE70E94440260E070E082E2D9
:100540000E94440260E070E080E00E94440260E0AB
:1005500070E083E00E9444020E943E0200E010E04E
:10056000C0E0D0E08091E2029091E30224E0969511
:1005700087952A95E1F7C817D907C0F40E94210290
:1005800088E70E94250280E40E9425028091E4020F
:100590009091E50260E170E0800F911F0E942A02B5
:1005A0000E943E022196005F1F4FDCCFDF91CF916A
:1005B0001F910F9108954091E2025091E302892B1F
:1005C00019F460E070E002C06FEF70E08091E40227
:1005D0009091E5020C94AE08962F96959695969577
:1005E0006770E82FF0E080E8989FE00DF11D11247E
:1005F0008091E4029091E502E80FF91F81E090E01C
:1006000001C0880F6A95EAF7452B19F09081892B74
:1006100003C080959081892380830895FF920F9372
:100620001F93CF93DF93C82FF62ED42F8901A801F3
:100630006D2F8C2FCF1549F00E94EC02FC1610F0A4
:1006400081E001C08FEFC80FF2CFDF91CF911F91F2
:100650000F91FF900C94EC02FF920F931F93CF9396
:10066000DF93C82FF62ED42F8901A8016C2F8D2F70
:10067000CF1549F00E94EC02FC1610F081E001C099
:100680008FEFC80FF2CFDF91CF911F910F91FF90A5
:100690000C94EC02EF92FF920F931F93CF93DF9392
:1006A000E82EC62FF42ED22F9801462F6F2D0E94D0
:1006B0000E0398014D2F6F2D8E2D0E940E03980171
:1006C0004E2D6D2F8C2F0E942C0398014F2D6D2FD6
:1006D0008C2FDF91CF911F910F91FF90EF900C9491
:1006E0002C03EF92FF920F931F93CF93DF93C82FAA
:1006F000D62FF42EE22E481710F4C42FF82EED1644
:1007000028F48D2FDE2DE82E01C0CF5FFC1648F0B7
:10071000ED16D8F3A8016D2F8C2F0E94EC02DF5F3D
:10072000F7CFDF91CF911F910F91FF90EF90089538
:100730007F928F929F92AF92BF92CF92DF92EF9271
:10074000FF920F931F93CF93DF936C01862E122F8E
:10075000762E720EC22F942E900EAA24A394B12C42
:10076000EC2EE11AC71549F1C7FD27C0D02FF12C97
:100770008D2F801BD915F9F0D032E8F4982F96957B
:1007800096959695F601989DE00DF11D1124EE0DBC
:10079000FF1D8770950102C0220F331F8A95E2F773
:1007A000C90140818423482F50E06D2F8C2F0E9477
:1007B000EC02DF5FDDCFCF5FD3CFDF91CF911F9111
:1007C0000F91FF90EF90DF90CF90BF90AF909F90F0
:1007D0008F907F900895AF92BF92CF92DF92EF9269
:1007E000FF920F931F93CF93DF9300D000D0CDB72C
:1007F000DEB77B01142F59016C01F60181916F0165
:100800008823A1F0AE014F5F5F4FBE016D5F7F4F48
:10081000F5010995012F2E2D49816B810E949803C6
:100820008B819C810196E80EF91EE7CF0F900F9007
:100830000F900F90DF91CF911F910F91FF90EF904C
:10084000DF90CF90BF90AF9008950E94920180E812
:10085000B82E80E090E00E94DB02909AB6B880E06B
:1008600090E00E947D016B017C0116B82FEF89E6B4
:1008700098E1215080409040E1F700C0000090983E
:1008800080E190E00E948D078C0180E490E00E945E
:100890008D07EC01C701B601882799272AE0A80136
:1008A0000E94C0088C01188266EC72E0CE010E94A2
:1008B000B508B801CE010E94B50821E431E045E059
:1008C00050E065E070E0CE010E94EB03B60180E0ED
:1008D00090E00E940D069B01AC0160E070EC8FE798
:1008E00094E40E94650520E030E040E85FE30E9468
:1008F000F80420E030E543EC57E40E94EB066B017E
:100900007C010E94D7052AE0A8010E94C0088C0142
:1009100018826CEC72E0CE010E94B508B801CE01DD
:100920000E94B50863ED72E0CE010E94B50821E493
:1009300031E04EE050E065E070E0CE010E94EB0354
:10094000A701960160E070E583EC97E40E946505DD
:100950000E94A30620E030EE46E755E40E946505BC
:100960009B01AC016FE07FEC8BE59BE30E94F804F8
:100970009B01AC0160E070E080E89FE30E946505A8
:1009800023E333E948E853E40E94F8040E94D705C2
:100990002AE0A8010E94C0088C01188267ED72E06D
:1009A000CE010E94B508B801CE010E94B50821E42D
:1009B00031E047E150E065E070E0CE010E94EB03DA
:1009C0000E948502CE010E942508C8010E942508C8
:1009D0002FEF89E698E1215080409040E1F700C078
:1009E000000037CFEE0FFF1F0590F491E02D099422
:1009F0005058BB27AA270E9410050C9461060E943C
:100A0000530638F00E945A0620F039F49F3F19F43B
:100A100026F40C9450060EF4E095E7FB0C944A067D
:100A2000E92F0E94720658F3BA176207730784070A
:100A3000950720F079F4A6F50C9494060EF4E09551
:100A40000B2EBA2FA02D0B01B90190010C01CA0188
:100A5000A0011124FF27591B99F0593F50F4503E33
:100A600068F11A16F040A22F232F342F4427585F25
:100A7000F3CF469537952795A795F0405395C9F73D
:100A80007EF41F16BA0B620B730B840BBAF09150F5
:100A9000A1F0FF0FBB1F661F771F881FC2F70EC094
:100AA000BA0F621F731F841F48F487957795679567
:100AB000B795F7959E3F08F0B0CF9395880F08F053
:100AC0009927EE0F9795879508950E9479050C94C4
:100AD00061060E945A0658F00E94530640F029F41D
:100AE0005F3F29F00C944A0651110C9495060C9422
:100AF00050060E94720668F39923B1F3552391F3CF
:100B0000951B550BBB27AA2762177307840738F07C
:100B10009F5F5F4F220F331F441FAA1FA9F335D0D9
:100B20000E2E3AF0E0E832D091505040E695001C8D
:100B3000CAF72BD0FE2F29D0660F771F881FBB1F47
:100B4000261737074807AB07B0E809F0BB0B802D25
:100B5000BF01FF2793585F4F3AF09E3F510578F051
:100B60000C944A060C9495065F3FE4F3983ED4F348
:100B7000869577956795B795F7959F5FC9F7880F25
:100B8000911D9695879597F90895E1E0660F771F77
:100B9000881FBB1F621773078407BA0720F0621B08
:100BA000730B840BBA0BEE1F88F7E09508950E9433
:100BB000DE056894B1110C94950608950E947A069A
:100BC00088F09F5798F0B92F9927B751B0F0E1F00E
:100BD000660F771F881F991F1AF0BA95C9F714C0BE
:100BE000B13091F00E949406B1E008950C949406FF
:100BF000672F782F8827B85F39F0B93FCCF38695F7
:100C000077956795B395D9F73EF490958095709553
:100C100061957F4F8F4F9F4F0895E89409C097FBD0
:100C20003EF490958095709561957F4F8F4F9F4FC3
:100C30009923A9F0F92F96E9BB279395F695879507
:100C400077956795B795F111F8CFFAF4BB0F11F4CA
:100C500060FF1BC06F5F7F4F8F4F9F4F16C0882371
:100C600011F096E911C0772321F09EE8872F762FA7
:100C700005C0662371F096E8862F70E060E02AF0E8
:100C80009A95660F771F881FDAF7880F96958795D4
:100C900097F9089597F99F6780E870E060E00895FC
:100CA0009FEF80EC089500240A9416161706180684
:100CB0000906089500240A94121613061406050660
:100CC0000895092E0394000C11F4882352F0BB0FF1
:100CD00040F4BF2B11F460FF04C06F5F7F4F8F4F54
:100CE0009F4F089557FD9058440F551F59F05F3F8F
:100CF00071F04795880F97FB991F61F09F3F79F03E
:100D000087950895121613061406551FF2CF4695BF
:100D1000F1DF08C0161617061806991FF1CF869541
:100D20007105610508940895E894BB276627772725
:100D3000CB0197F9089516F00C9458070C945006BF
:100D400068940C944A060E947A06A8F39923C1F38A
:100D5000AEF3DF93CF931F930F93FF92C92FDD273D
:100D600088232AF02197660F771F881FDAF720E083
:100D700030E040E85FEB9FE3883920F0803E38F0B8
:100D800021968F770E94F904E0EDF0E004C00E9404
:100D9000F904EDEFF0E00E9466078B01BE01EC0163
:100DA000FB2E6F5771097595771F880B990B0E9461
:100DB0000F0628E132E741E35FE30E94FE06AF2D14
:100DC0009801AE01FF900F911F91CF91DF910E948A
:100DD00010050C9461060E94FE060C9461060E94A8
:100DE000530638F00E945A0620F0952311F00C9417
:100DF0004A060C94500611240C9495060E94720623
:100E000070F3959FC1F3950F50E0551F629FF0015D
:100E1000729FBB27F00DB11D639FAA27F00DB11D76
:100E2000AA1F649F6627B00DA11D661F829F2227FF
:100E3000B00DA11D621F739FB00DA11D621F839F86
:100E4000A00D611D221F749F3327A00D611D231F5C
:100E5000849F600D211D822F762F6A2F11249F57AA
:100E600050409AF0F1F088234AF0EE0FFF1FBB1FAD
:100E7000661F771F881F91505040A9F79E3F51056C
:100E800080F00C944A060C9495065F3FE4F3983E7C
:100E9000D4F3869577956795B795F795E7959F5F16
:100EA000C1F7FE2B880F911D9695879597F90895A8
:100EB0009F3F31F0915020F4879577956795B795CE
:100EC000880F911D9695879597F90895DF93CF9395
:100ED0001F930F93FF92EF92DF927B018C01689436
:100EE00006C0DA2EEF010E94FE06FE01E894A591ED
:100EF0002591359145915591A6F3EF010E9410057A
:100F0000FE019701A801DA9469F7DF90EF90FF9056
:100F10000F911F91CF91DF9108950F931F93CF935E
:100F2000DF938230910510F482E090E0E091E802D6
:100F3000F091E90220E030E0A0E0B0E0309719F154
:100F4000408151810281138148175907C8F08417E5
:100F5000950769F4109731F012960C931297139637
:100F60001C9327C00093E8021093E90222C02115C8
:100F7000310519F04217530718F49A01BD01EF012A
:100F8000DF01F801DBCF21153105F9F0281B390B02
:100F90002430310580F48A819B816115710521F02F
:100FA000FB019383828304C09093E9028093E8025B
:100FB000FE01329644C0FE01E20FF31F819391932C
:100FC00022503109398328833AC02091E6023091BA
:100FD000E702232B41F420916200309163003093AB
:100FE000E7022093E6022091600030916100211514
:100FF000310541F42DB73EB7409164005091650032
:10100000241B350BE091E602F091E702E217F307AB
:10101000A0F42E1B3F0B2817390778F0AC014E5F68
:101020005F4F2417350748F04E0F5F1F5093E702BC
:101030004093E6028193919302C0E0E0F0E0CF019B
:10104000DF91CF911F910F910895CF93DF93009778
:1010500009F481C0FC01329713821282A091E80248
:10106000B091E902109781F420813181820F931FA2
:101070002091E6023091E7022817390751F5F093E5
:10108000E702E093E60267C0ED0120E030E0CE1712
:10109000DF0740F44A815B819E0141155105F1F063
:1010A000EA01F5CFD383C28340815181840F951F1C
:1010B000C817D90759F488819981840F951F029622
:1010C000918380838A819B8193838283211531055B
:1010D00029F4F093E902E093E8023DC0E901FB83C3
:1010E000EA8349915991C40FD51FEC17FD0761F4AC
:1010F00080819181840F951F0296E90199838883ED
:10110000828193819B838A83E0E0F0E012968D9147
:101110009C911397009719F0FD01DC01F7CF8D9199
:101120009C9111979D012E5F3F4F820F931F20913D
:10113000E6023091E7022817390769F4309729F45D
:101140001092E9021092E80202C013821282B09358
:10115000E702A093E602DF91CF910895DC0101C080
:101160006D9341505040E0F70895FB01DC010D9074
:101170000020E9F7119701900D920020E1F7089502
:10118000BB272A3051F4992342F4BDE29095809513
:10119000709561957F4F8F4F9F4F0C94D008BB2760
:1011A000FA01A62F6217710581059105330B30FBFB
:1011B00066F0AA27660F771F881F991FAA1FA2171C
:1011C00010F0A21B63953850A9F7A05DAA3308F070
:1011D000A95DA19336F7B111B1931082CA010C94A5
:1011E000F108DC01FC01672F71917723E1F7329759
:1011F00004C07C916D9370836291AE17BF07C8F3F2
:061200000895F894FFCFF1
:101206000000EA022000030003000042000000A2E2
:101216004000000000007E8181817E000402FF0004
:10122600C6A1918986428189897610181412FF8792
:10123600898989717E898989700101F10D03768911
:101246008989760E9191917E00FE090909FEFF8932
:10125600898971FF89898976FF01010101DE2121D2
:1012660021DEFF89898981F7087E08F781898989C6
:1012760076FFC03806FFFFC03806FFFF081422C1FC
:10128600C0300E01FFFF021C02FFFF080808FF7EA8
:101296008181817EFF010101FFFF090909067E8127
:1012A6008181810101FF010183641806010609FF9E
:1012B600090681661866817F80807F800708080896
:1012C600FF7F4078407F7F407840FF01FF8888702D
:1012D600FF00FF8870FF88888870898989897EFF6A
:1012E600087E817E8E513111FF00FF0101F1F1313F
:1012F6003131313131F1F101010101018181818108
:1013060081011171E18101010181E171110101F197
:10131600F1010181C1E161311101010181C1E17177
:101326003131313171E1C18101FFFF0000FFFF0062
:101336000000000000FFFF0000003E7FE3C1C1C1C6
:10134600C1630000C1C7FE783E0F0300000000FF26
:10135600FF0E07030F1C78E0C08000001F3F70E0FF
:10136600C0C0C0C0E0703F1F00FFFF0000F08080DB
:10137600800000800000008000000000E0202020A7
:1013860020E00000008080800000008080808000D7
:1013960080000080800080808080800000808080C7
:1013A600000080000000800000FFFF80808F88889A
:1013B600888780A1A6988681808080808F808080A3
:1013C600808F80808788888887888C8780808F80B8
:1013D6008F8C82818F8080808F808080878A8A8AA6
:1013E6008B8088858285888080FF00AED5F0A81F17
:1013F600D3008D14402000A1C8DA0281FFD9F1DBA9
:1014060020A4A42EAFFF8181FF0024FF2424FF2403
:1014160000728D8D5525D2002A1C081C2A0008084A
:101426003E0808000808080808000814242241009D
:101436001414141414004122141408000201B109F2
:101446000600444AFF4A3200836318C6C1001EBF25
:101456001E00C03C03004020C0000103007E810046
:10146600817E00C0C00080968F3A2000918E8F90BA
:101476003A2000208E8C0096858B9C9188883A2095
:02148600000064
:00000001FF
